:020000040800F2
:10000000881C00209901000855340008412B000885
:10001000DD330008510B00087544000800000000A3
:1000200000000000000000000000000001010008C6
:10003000530B00080000000045010008B93E00080D
:10004000B3010008B3010008B3010008B3010008C0
:10005000B3010008B3010008B3010008B3010008B0
:10006000B3010008B30100085D0B0008B3010008EC
:10007000B3010008B3010008B3010008B301000890
:10008000B3010008B3010008B3010008B301000880
:10009000B3010008B3010008B3010008B301000870
:1000A000B3010008613F0008B3010008B301000874
:1000B0006D3F0008793F0008853F0008B301000844
:1000C000B3010008B3010008B3010008B301000840
:1000D000B3010008194400085D44000869440008A1
:1000E000550B0008B3010008B3010008DFF80CD07D
:1000F00000F064FC0048004749570008881C0020B5
:10010000224B19680868B0E8F00F80F30988BFF344
:100110006F8F4FF0000080F311884EF00D0E704786
:100120000000000006480068006880F3088862B696
:1001300061B6BFF34F8FBFF36F8F00DF00BF00BF0B
:1001400008ED00E0EFF30980BFF36F8F0F4B1A68E3
:1001500020E9F00F106008B54FF0500080F31188CF
:10016000BFF34F8FBFF36F8F06F01CFA4FF0000004
:1001700080F31188BDE8084019680868B0E8F00FFE
:1001800080F30988BFF36F8F704700BFAC00002079
:10019000EFF3058070470000064880470648004797
:1001A000FEE7FEE7FEE7FEE7FEE7FEE7FEE7FEE727
:1001B000FEE7FEE75F3F0008ED000008202A04DBB1
:1001C000203A21FA02F00021704721FA02F3D040D0
:1001D000C2F12002914008431946704740EA0103EA
:1001E0009B0703D009E008C9121F08C0042AFAD2ED
:1001F00003E011F8013B00F8013B521EF9D27047B1
:10020000D2B201E000F8012B491EFBD27047002258
:10021000F6E710B513460A4604461946FFF7F0FF05
:10022000204610BD421C10F8011B0029FBD1801A8A
:100230007047F0B480EA0102D40F4200B2EB410FE4
:1002400002D20246084611464A0042D0C30DDDB232
:10025000C1F3C752AD1A202D35DAC1F3160141F4AE
:10026000000204B15242C5F1200602FA06F12A4109
:100270001044B3EBD05F23D0C4B1012DA0EBC35029
:1002800009DCF0BC4FF0004202EAC352DBB200F5D9
:10029000000000F0F0BA400000F1807000EBC350A5
:1002A000A0F1807040EAD170490009E0490841EAB4
:1002B000C071A0EBC35000F50000400800EBC35034
:1002C000F0BC00F0CFBA6142012202EB4101001BF9
:1002D000F6E7F0BC704781F00041AAE780F00040EB
:1002E000A7E780EA010210B502F00043400022D0E7
:1002F0004A001FD0010E01EB1261C0F35600C2F399
:10030000560240F4000042F40002A0FB0220000468
:100310007F39140400D0401C50EA124001D4400040
:10032000491EC2B20C0604EBD010401C4008802AC3
:1003300002D003E0002010BD20F00100002900DA07
:100340000020184310BD420005D0C0F3C7525242EE
:10035000914201DC0020704700EBC15070472DE94D
:10036000FE4F804681EA0300C00F0C46009021F04A
:10037000004123F00045B8EB0200A94105D24046F8
:10038000214690461C460B46024623F0004010438F
:1003900047D0270DC7F30A00C3F30A510290401A51
:1003A000019040286BDAC3F3130040F4801B0098DF
:1003B000924620B10023D2EB030A63EB0B0B0198AA
:1003C0005946C0F14002504600F02BFA06460D4651
:1003D00050465946019A00F033FA10EB080061418B
:1003E000002487EA115284EAE7731A4340D0009A46
:1003F00062B3019A012A4FEA075215DC001B61EB38
:1004000002014FF0004202EA0752CDE90042001C0F
:1004100041F5801132462B4600F06AFA03B0BDE880
:10042000F08F40462146F9E7001B61EB0201001CFA
:1004300041F5801300185B412018A2F5001747EB27
:10044000030140EAD570B6196D4111E06D084FEA1D
:10045000360645EAC0754FEA0752001B61EB020100
:10046000001C41F5801149084FEA30000019514144
:1004700032462B4603B0BDE8F04F00F02ABA009890
:10048000012240000023D0EB020263EBE0730098EE
:1004900021464FEAE074B8EB000061EB0401E9E7A4
:1004A00083F000435BE781F0004158E72DE9FE4F00
:1004B00081EA030404F0004421F0004100944FF06D
:1004C000000B23F0004350EA01045ED052EA03041B
:1004D0005BD0C3F30A54C1F30A552C44A4F2F3349D
:1004E0000194A0FB0254C1F3130141F48011C3F342
:1004F000130343F4801301FB024400FB034E840A00
:10050000970A44EA815447EA8357A4FB0768029597
:100510008D0A05FB07854FEA932C04FB0C54270535
:10052000029D4FEA065847EA1637B5EB08056EEB11
:10053000070C870E920E47EA811742EA8312A7FB47
:100540000201B6EB0B0164EB00042B0D43EA0C3304
:100550005E1844EB1C50DA465146E7FB0201C5F336
:1005600013044FEA0B3343EA14534FEA0432019C5D
:1005700043EA0603A4F10C040294009CCDE900B404
:1005800000F0B6F903B0BDE8F08F00200146F9E7AE
:100590002DE9F04D81EA030404F0004B21F0004501
:1005A00014464FF0000A23F0004150EA050220D023
:1005B00054EA01021DD0C5F30A570246C5F31303DE
:1005C000C1F31300C1F30A5640F4801543F48013BD
:1005D000A7EB0608101BD64608F2FD3873EB0500A2
:1005E00002D308F1010801E092185B41B8F1000F55
:1005F00003DA00200146BDE8F08D00204FF48011A1
:10060000064684460EE0171B73EB050705D3121B45
:1006100063EB050306434CEA010C49084FEA30003E
:1006200092185B4150EA0107EDD152EA030012D063
:1006300082EA040083EA0501084305D0101BAB41A0
:1006400006D20122002306E000224FF0004302E020
:100650006FF0010253101AEB06004CEB085110EB3F
:100660000A0041EB0B01BDE8F04D00F032B970B566
:1006700021F0004303430CD0C1F30A550024D5EB0D
:10068000040564EB0403D617AD1AB34102DB002066
:10069000014670BD201841EB025170BDC10F80EAC8
:1006A000E0700844CA079623002100F0E4B89623BE
:1006B0000022114600F0DFB80EB540F2334102913E
:1006C0000021CDE900110A460B4600F011F903B0F4
:1006D00000BD00F0004220F00040C10DC0F3160044
:1006E00040F400007F2901DA00207047962903DCDE
:1006F000C1F19601C84001E096398840002AF4D043
:100700004042704700F0004230F000400AD0C10D76
:1007100001F56071C0F3160042EA0151C2084007BA
:1007200011437047002001467047000030B5041E99
:1007300071F1000404DB4FF00044404264EB01011E
:10074000141E73F1000405DB1C464FF000435242B7
:1007500063EB0403994208BF904230BD01F00043AF
:1007600030B421F0004150EA010206D00A0DA2F592
:100770006072C1F31301002A02DC30BC0020704714
:10078000440F44EAC104C100E01830BC00EBC25081
:1007900000F068B830B50B46014600202022012445
:1007A00009E021FA02F59D4205D303FA02F5491B3F
:1007B00004FA02F52844151EA2F10102F1DC30BD55
:1007C0002DE9F05F0546002092469B468846064686
:1007D000814640241BE02846414647462246FFF713
:1007E000EDFC53465A46C01A914110D311461846A3
:1007F000224600F016F82D1A67EB01084F462246F4
:100800000120002100F00DF817EB00094E41201ED9
:10081000A4F10104DFDC484631462A464346BDE8E0
:10082000F09F202A04DB203A00FA02F100207047F2
:100830009140C2F1200320FA03F31943904070471E
:10084000202A06DBCB17203A41FA02F043EAE07394
:1008500006E041FA02F3D040C2F120029140084381
:10086000194670470029A8BF7047401C490008BFBF
:1008700020F00100704710B4B0FA80FC00FA0CF0D0
:1008800050EA010404BF10BC704749B1CCF1200408
:1008900021FA04F411FA0CF118BF01212143084395
:1008A000A3EB0C01CB1D4FEA00614FEA102042BFC1
:1008B000002010BC704700EBC35010440029A4BFB7
:1008C00010BC7047401C490008BF20F0010010BC5C
:1008D000704710B5141E73F1000408DA401C41F192
:1008E000000192185B411A4301D120F0010010BDB4
:1008F0002DE9F04D92469B4611B1B1FA81F202E02A
:10090000B0FA80F220329046FFF78BFF04460F4684
:1009100040EA0A0041EA0B0153465A46084313D005
:10092000114653EA010019D0C8F140025046FFF7C2
:1009300045FC05460E46504659464246FFF771FFB4
:10094000084305D0012004E020463946BDE8F08D7B
:100950000020054346EAE0762C4337430A986305B6
:10096000E40AA0EB08000022FD0A44EA47540A30DA
:1009700002D500200146E9E7010510196941DDE9CA
:10098000084500196941BDE8F04DA2E7C1F30A52DC
:10099000C1F3130140F2FF3341F480119A4202DAAD
:1009A00000200146704740F233439A42A2F233429C
:1009B00002DC5242FFF702BCFFF733BF064C074D83
:1009C00006E0E06840F0010394E80700984710341F
:1009D000AC42F6D3FFF78EFB7078000890780008E1
:1009E0002DE9F04D00231A461B1A8A4103DB002033
:1009F0000146BDE8F08DC1F30A52C1F3130141F481
:100A000080154FF0000BD10702D100186D41521E26
:100A10000027044640F2FF11384601EB620A3E46C9
:100A20008046024600204FF48011FFF7C7FBC21931
:100A30007141BB1846EB0100B4EB030C75EB000CE5
:100A400004D3E41A65EB000517460E46241908F195
:100A500001006D4180463428E3DDF91946EB0600BC
:100A6000091BA84103D24FF0FF32134601E00022D8
:100A700013461BEB070046EB0A51BDE8F04DFFF7AC
:100A800028BF70B5044600688168C943C90716D1FC
:100A9000816821F00101816000F080FC054609E0D9
:100AA00000F07CFC401B022804D920688068C04309
:100AB000C00706D020688068C043C007F0D000207F
:100AC00070BDA06A40F01000A062E06A40F0010032
:100AD000E062012070BD0000F8B5002604460096D3
:100AE00000688168C943C9072CD0816841F00101C1
:100AF0008160154815490068B0FBF1F000E0401E28
:100B000000900028FBD100F049FC054615E000F0FC
:100B100045FC401B022810D920688068C043C007EC
:100B20000BD0A06A40F01000A062E06A40F0010023
:100B3000E06284F824600120F8BD20688068C0432A
:100B4000C007E4D10020F8BD6C00002040420F0037
:100B5000FEE770474FF4805000F01CBB102000F0FF
:100B600019BB72B6FEE70000F8B50023009390F8B9
:100B700024201C46012A12D0012280F824204A6831
:100B80001F26072A0DD205686F6B521E02EB8202E8
:100B90009640B7430E68964037436F6319E00220D2
:100BA000F8BD05680D2A0AD22F6BD21F02EB820214
:100BB0009640B7430E68964037432F6309E0EF6ACB
:100BC0000D3A02EB82029640B7430E6896403743D7
:100BD000EF620A68072605680A2A0AD3EF680A3A0C
:100BE00002EB42029640B7438E6896403743EF606F
:100BF00008E02F6902EB42029640B7438E689640A8
:100C000037432F610A68102A01D0112A20D1124DD2
:100C10000268AA4217D195682D0219D4956845F447
:100C2000000595600968102912D10C490C4A096821
:100C3000B1FBF2F101EB8101490000E0491E009196
:100C40000029FBD104E0816A41F020018162012387
:100C500080F824401846F8BD002401406C000020B4
:100C600040420F000068C06C704700002DE9F04161
:100C70004FF00006040035467DD0A06A002728B951
:100C8000E76284F82470204600F07EF82046FFF7E3
:100C9000F8FEA16AC90600D420B1A06A40F0100095
:100CA000A06268E0A16A21F4885141F00201A162CA
:100CB0006268E169237B0A4346EA43010A43A1686B
:100CC0004FF48076B14208D0012906D0002194F873
:100CD00014C0BCF1010F02D00AE03146F7E7F3B1CE
:100CE000A36A43F02003A362E36A43F00103E362D3
:100CF0002368D3F804C02CF4694C4CEA010CC3F807
:100D000004C021688B68DFF874C003EA0C03134346
:100D10008B60A168B1420BD0012909D00CE0DFF84B
:100D200060C0A3690CEB43330B4343F40061DFE77E
:100D3000218A0D05A5F580152168CB6A23F470037F
:100D40002B43CB62216889680E4B1940914208D130
:100D5000E762A16A21F0020141F00101A162BDE850
:100D6000F081A06A20F0020040F01000A062E06A6A
:100D700040F00100E0620120F1E70000FDF7E1FF33
:100D800000E0FFFFFE0E1FFF00B585B000210091BF
:100D900001910291039100680E49884218D10E48D2
:100DA000816941F480618161816901F4806104910C
:100DB000816941F0040181618069694600F00400A5
:100DC00004901020009003200190044800F0EEF9F8
:100DD00005B000BD0028014000100240000801409D
:100DE0002DE9F8434FF000080D460446CDF8008089
:100DF00000F0D4FA074620688168C90508D5A06AC2
:100E000040F02000A06284F824800120BDE8F8832F
:100E10004168C90503D4C06A10F4700F29D00220BC
:100E200000F072FB3A490968B1FBF0F620680169ED
:100E3000384A11424FEA62024FEAA2131ED1C1683A
:100E40004FEA621C11EA0C0F18D10169114224D13A
:100E5000C068184221D1142022E0681C09D025B1B5
:100E600000F09CFAC01BA84203D9206800688007E4
:100E700024D5206800688007EFD52CE00169114275
:100E800002D1C168194206D0026923490A4206D13B
:100E9000C068084203D1542002E0292000E0FC2071
:100EA0004643009815E0681C10D025B100F076FA92
:100EB000C01BA8420AD90098B04207D2A06A40F0ED
:100EC0000400A06284F8248003209FE70098401C5F
:100ED0000090B042E7D321686FF012000860A06A6A
:100EE00040F40070A06220688068C0F34240072888
:100EF0000CD1207B50B9A06A20F48070A062A06A57
:100F0000C00403D4A06A40F00100A06200207DE785
:100F10006C000020244992244992240070B50446B4
:100F200090F8240001280DD0012084F824002046E8
:100F3000FFF7D2FD01004FF0000205D084F8242015
:100F4000084670BD022070BDA06A40F2012398439C
:100F500040F48070A0621F4D20681F4BA84218D13A
:100F60001E6816F4702F14D0A66A46F48016A66286
:100F70001E68760505D5A66A26F4005646F4805606
:100F8000A662A66AF6040AD5E66A26F00606E662B6
:100F900006E0A66A26F48016A6624668E9E7E262E1
:100FA00084F824206FF00202026020688268C2F395
:100FB0004242072A05D1A84208D11A6812F4702FBC
:100FC00004D0826842F480128260B9E7826842F4F9
:100FD000A002F9E7002801400424014010B590F870
:100FE00021100022022905D00421816380F82020ED
:100FF000012010BD01680B6823F00E030B6001682F
:101000000B6823F001030B6090F84030012404FAD0
:1010100003F1C36B596080F8214080F8202010460E
:1010200010BD000010B590F821100024022903D053
:101030000421816301243DE001680A6822F00E0268
:101040000A6001680A6822F001020A601A4A01680F
:10105000914201D1012121E0174A1432914201D17C
:1010600010211BE0144A2832914201D1891515E064
:10107000114A3C32914201D189140FE00E4A50329C
:10108000914202D14FF4803108E00B4A6432914220
:1010900002D14FF4801101E04FF08071064A083A06
:1010A0005160012180F82110002180F82010416B4F
:1010B00001B18847204610BD0800024070B50446C3
:1010C00000F06CF90546601C02D004480078044426
:1010D00000F064F9401BA042FAD370BD600000200C
:1010E0002DE9FE430024DFF89C80274D00948DF805
:1010F00004408DF808404FF40057102819D07E1096
:10110000B04214D10A20FFF7D9FF31461F4800F042
:1011100033F900280BD18DF8084002236A4602A952
:10112000286805F05DFB3946404600F02AF9BDE825
:10113000FE830A20FFF7C2FF1021154800F01CF9BA
:101140000128F4D16A4601A9286805F043FC01286A
:1011500002D08DF8044003E09DF8040006280FD06B
:101160009DF80400401C8DF808003946404600F008
:1011700008F900236A4602A9286805F031FBD6E782
:101180000120F0E70010014050000020000801405D
:10119000000C0140044910B50A68024202D0086000
:1011A000FFF79EFF10BD0000140401402DE9F84F29
:1011B000DFF8A491002409F1040A0AF1040B234684
:1011C0004FF00F080BF1040EBEE00127A7403A4094
:1011D000BA4272D1DFF884C14D68A5EB0C066545B3
:1011E0002BD00DDC032D34D005DC35B3012D19D007
:1011F000022D2FD11BE0112D16D0122D2AD119E06E
:10120000B6F5881F19D006DCB6F5803F15D0B6F5C7
:10121000801F1FD111E0B6F5001F0ED0B6F5041FD8
:1012200018D10AE0CB6815E0CB681B1D12E0CB6833
:1012300008330FE0CB680C330CE08B682BB1012B2B
:101240004FF0080303D0476104E0042302E0076184
:1012500000E00023FF2A01D8064601E000F1040661
:101260004FEA840501D9A5F12005376808FA05FC85
:1012700027EA0C0703FA05F547EA050737604D68CA
:10128000ED0060D5364DAE6946F00106AE61AD6940
:1012900024F0030605F001050095324D7719BE686C
:1012A000A5072D0F08FA05FC26EA0C06DFF8B8C0E2
:1012B000604503D14FF0000C17E044E0DFF8ACC00C
:1012C000604502D14FF0010C0FE0DFF8A4C060458B
:1012D00002D14FF0020C08E0DFF898C0604502D15F
:1012E0004FF0030C01E04FF0040C0CFA05FC4CEA43
:1012F000060CC7F808C04D68D9F80060ED034D46EC
:1013000001D5164300E096432E604D68DAF8006080
:10131000AD03554601D5164300E096432E604D6857
:10132000DBF80060ED025D4601D5164300E0964310
:101330002E604D68DEF80060AD02754601D516439B
:1013400000E096432E60641C0A6832FA04F57FF4CC
:101350003CAFBDE8F88F0000000401400000111010
:10136000001002400000014000080140000C014054
:1013700000100140001401408068084000D00120A6
:101380007047C26821EA02030A4043EA0241016150
:1013900070470AB1016170470904FBE701488068A2
:1013A0007047000060000020074810B5016841F058
:1013B00010010160032000F095F80F2000F006F8FE
:1013C00000F03EF8002010BD0020024000B50146AC
:1013D00087B000221D2000F065F81D2000F054F8B1
:1013E0001348C16941F00201C161C06905A900F05B
:1013F00002000690684600F0F9F900F017FA0D496E
:101400004000B0FBF1F10D480B4A491E02604160FB
:1014100040F2E7320021C0E90321816000F048FC7E
:1014200010B1012007B000BD044800F08DFCF9E7C1
:101430000010024040420F0000040040A0060020BF
:101440000F4808B5816941F001018161816901F0AE
:1014500001010091C16941F08051C161C069002260
:1014600000F0805000900F21901E00F01BF80549FD
:10147000486820F0E06040F00070486008BD00005F
:101480000010024000000140002809DB00F01F02AC
:10149000012191404009800000F1E020C0F80011D6
:1014A00070470000F0B40E4B1B68C3F30223C3F176
:1014B0000704042C00D904241D1D072D01D200238C
:1014C00000E0DB1E012606FA04F56D1E0D409D406E
:1014D0009E40761E164045EA0601F0BC03F064B853
:1014E0000CED00E0064A00F0070110684FF6FF031C
:1014F000184040EA0120034908431060704700008B
:101500000CED00E00000FA0510B5014627A086B0FA
:101510001DC88DE81D0029A0294C006804900020FA
:10152000012922D0022939D010291CD161682268F2
:10153000D20118D5C1F38342C9031DF8020009D5B1
:10154000616804AAC1F34041515C1E4AB2FBF1F14B
:10155000484301E01C4948436168490203D4400004
:101560000321B0FBF1F006B010BD216AC1F30122E6
:10157000012A03D1890701D5D003F4E7022A05D156
:10158000616A890702D549F64040ECE7032AEAD1AF
:1015900021688903E7D54FF22440E4E700F056F9CB
:1015A0006168C1F38131491C4900DAE7020304058F
:1015B000060708090A0B0C0D0E0F1010010200009F
:1015C0000010024000127A0000093D002DE9F843A6
:1015D00004460078344FC00752D0F8690025C00097
:1015E00008D4F86940F08050F861F869012500F0EE
:1015F000805000902D480168C90511D401688046CB
:1016000041F480710160FFF7C9FE064604E0FFF770
:10161000C5FE801B642822D8D8F80000C005F6D586
:10162000386A10F4407020D0A18801F440718142E2
:101630001BD0386A1E49012220F440700A60002243
:101640000A603862C00710D0FFF7A8FE064641F2D4
:10165000883807E0FFF7A2FE811B414502D903202D
:10166000BDE8F883386A8007F4D5386A616820F4E9
:101670004070084338621DB1F86920F08050F8616D
:101680002078800705D57868A16820F44040084399
:1016900078602078C00605D57868E16820F480007D
:1016A000084378600020DBE7001002400070004033
:1016B000400442422DE9F0470D46040067D0DFF8B0
:1016C0001881D8F8000000F00700A8420CD2D8F822
:1016D000001021F007012943C8F80010D8F80000D5
:1016E00000F00700A84252D120683C4E810712D575
:1016F000400703D5706840F4E06070602078000710
:1017000003D5706840F4605070607068A16820F084
:10171000F000084370602078C00727D06068012877
:1017200010D03168022810D0890700292FDA71689B
:1017300021F0030101437160FFF730FE074641F2DB
:1017400088390CE031688903EFE78901EDE7FFF79D
:1017500025FEC11B494502D90320BDE8F08770680A
:10176000616800F00C00B0EB810FF0D1D8F80010E8
:10177000404601F00701A9420BD9016821F0070199
:1017800029430160006800F00700A84201D0012051
:10179000E3E72078400705D57068E16820F4E06051
:1017A000084370602078000706D57068216920F42E
:1017B000605040EAC100706000F058F87168084A53
:1017C000C1F30311515CC84006490860064800682F
:1017D000FFF7FCFD0020C0E700200240001002409F
:1017E000CC6E00086C000020640000200F22026014
:1017F0000C4A536803F003034360536803F0F0039B
:101800008360536803F4E063C36052684FF4E0639D
:1018100003EAD20202610448006800F00700086091
:1018200070470000001002400020024004480549B3
:1018300000684968044AC1F30221515CC8407047FE
:101840006C00002000100240DC6E000804480549CE
:1018500000684968044AC1F3C221515CC84070471E
:101860006C00002000100240DC6E000812A085B061
:101870000FC88DE80F0014A0144B0068049059683D
:10188000134801F00C02042A10D0082A0ED1C1F32B
:101890008342C9031DF802000AD5596804AAC1F39E
:1018A0004041515C0A4A5043B0FBF1F005B070472B
:1018B00008494843FAE7000002030405060708093F
:1018C0000A0B0C0D0E0F1010010200000010024058
:1018D00000127A0000093D002DE9F84F04006FD096
:1018E0002078BE4DC00747D06868C0F3810001284A
:1018F00007D06868C0F38100022809D16868C00376
:1019000006D52868800337D560680028E7D033E023
:101910006068B0F5803F0BD010B1B0F5A02F11D0AA
:10192000286820F480302860286820F4802002E0B5
:10193000286840F480302860606888B1FFF72EFD89
:10194000064609E0286840F480202860F0E7FFF7A9
:1019500025FD801B642873D828688003F7D50BE029
:10196000FFF71CFD064604E0FFF718FD801B642806
:10197000F1D828688003F7D42078DFF864828007E4
:101980004FF0010A4FF0000939D5686810F00C0FCC
:1019900007D06868C0F38100022809D16868C003D5
:1019A00006D42868800714D52069012808D110E0E2
:1019B0002069B0B1C8F800A0FFF7F0FC064605E0CA
:1019C00007E1FFF7EBFC801B0228C4D828688007DA
:1019D000F7D52868616920F0F80040EAC100286066
:1019E0000DE0C8F80090FFF7D9FC064604E0FFF7C9
:1019F000D5FC801B022823D828688007F7D42078DC
:101A000000072CD57748A169D9B1C0F800A0FFF72D
:101A1000C5FC064604E0FFF7C1FC801B02280FD876
:101A2000686A8007F7D570484FF4FA510068B0FB38
:101A3000F1F0009000BF0098411E0091FAD20EE034
:101A40007CE0C0F80090FFF7A9FC064604E0FFF731
:101A5000A5FC801B022871D8686A8007F7D420781B
:101A600040075BD5E8690027C00008D4E86940F06A
:101A70008050E861E869012700F0805000905B48E1
:101A80000168C90511D40168834641F48071016081
:101A9000FFF784FC064604E0FFF780FC801B642807
:101AA0004CD8DBF80000C005F6D5E06801280AD064
:101AB00008B1052813D0286A20F001002862286A9E
:101AC00020F0040002E0286A40F001002862E0688B
:101AD00041F2883B88B1FFF761FC064609E0286ABD
:101AE00040F004002862EEE7FFF758FC811B5945DF
:101AF0005BD8286A8007F7D50BE0FFF74FFC064656
:101B000004E0FFF74BFC811B59454ED8286A80073B
:101B1000F7D41FB1E86920F08050E861E069A8B30C
:101B20006968C1F38101022946D00228484606D0DF
:101B3000C8F86000FFF732FC044639E035E047465C
:101B4000C8F86000FFF72AFC064604E0FFF726FC11
:101B5000801B022829D828688001F7D4206AB0F5B4
:101B6000803F05D16868A16820F4003008436860B0
:101B7000D4E908010843696821F4741108436860D6
:101B8000C7F860A0FFF70AFC044605E023E0FFF772
:101B900005FC001B022808D828688001F7D51AE048
:101BA000FFF7FCFB001B022802D90320BDE8F88FD9
:101BB00028688001F4D40EE00128F7D06868226A12
:101BC00000F48031914204D1616A00F470108842BF
:101BD00001D00120EAE70020E8E700000010024001
:101BE00000004242800442426C000020007000402D
:101BF0007047704710B590F83C20012A22D001228E
:101C000080F83C20CA688C6822F4407222434C68F9
:101C100022F4806222430C6822F4006222430C69A1
:101C200022F4805222434C6922F400522243C969B3
:101C3000002322F480420A4301684A6480F83C3061
:101C4000002010BD022010BD70B590F83C20012A84
:101C500026D0012580F83C50022280F83D20026801
:101C60005368946823F070060B68334353600D4B40
:101C700002689A4208D0B2F1804F05D00A4B9A42CE
:101C800002D00A4B9A4204D1496824F080031943D8
:101C9000916080F83D50002180F83C10084670BDEE
:101CA000022070BD002C01400004004000080040EC
:101CB00010B5040003D094F83D0010B107E00120F6
:101CC00010BD002084F83C00204600F01FF80220E0
:101CD00084F83D00211D206802F05AF9012084F8A3
:101CE000460084F83E0084F83F0084F8400084F801
:101CF000410084F8420084F8430084F8440084F8EA
:101D0000450084F83D00002010BD000008B50068C3
:101D10000B49884212D10B48816941F4006181610D
:101D20008069002200F40060009005211920FFF76F
:101D3000B9FBBDE808401920FFF7A6BB08BD0000AD
:101D4000002C01400010024090F83D10012901D004
:101D500001207047022180F83D100168CA6842F0F6
:101D60000102CA6000680B49884208D0B0F1804F78
:101D700005D00949884202D00849884204D18168C7
:101D800001F00701062903D0016841F0010101605B
:101D900000207047002C0140000400400008004073
:101DA00070B5044690F83C00012817D0012584F84E
:101DB0003C50022084F83D002068826822F07702BF
:101DC00022F47F4282600868502830D00DDC202841
:101DD0004DD005DC98B310283BD148E0022070BDFF
:101DE000302844D0402834D139E0602828D07028E9
:101DF00006D0B0F5805F2CD0B0F5005F29D10AE0A5
:101E0000CB68D1E90121206802F005F920688168DA
:101E100041F0770109E0CB68D1E90121206802F0A7
:101E2000FAF82068816841F48041816011E0CA6855
:101E30004968206802F0AAF95021206807E016E0FE
:101E4000CA684968206802F0B2F96021206802F08F
:101E5000ECF884F83D50002084F83C0070BDCA685E
:101E60004968206802F092F940212068EFE7226873
:101E700001461046EBE72DE9F0410D46040003D082
:101E800094F83D0018B108E00120BDE8F081002081
:101E900084F83C00204600F041F8022084F83D0020
:101EA0002068816844F2070291438160211D206807
:101EB00002F06EF8206881688269066A2B68AF6953
:101EC0000B4340F203318A4342EA0722A968EF69D3
:101ED00011434FF6FC429143EA6841EA07210A4365
:101EE00029692F6A090141EA073111436A686D695E
:101EF00026F0220646EA05152A43836020688161A0
:101F000054F8460B0262012004F81F09E0752076A0
:101F1000E0762077A0750020B7E7000000B585B017
:101F2000002100910191029103910168234801224F
:101F3000B1F1804F23D0224B99421ED1C16941F0AB
:101F40000401C161C16901F004010491816941F09A
:101F5000080181618069694600F008000490C02092
:101F6000009002921748FFF721F9002205211E2058
:101F7000FFF798FA1E20FFF787FA05B000BDC16988
:101F800041F00101C161C16901F001010491816960
:101F900041F0040181618069694600F00400049009
:101FA0000320009002920848FFF700F90022052163
:101FB0001C20FFF777FA1C20DDE70000001002402C
:101FC00000080040000C01400008014070B590F886
:101FD0003E50044690F83F3090F8422090F843007D
:101FE000022621B104290BD0012D16D10FE0012DBD
:101FF00013D1012A11D184F83E6084F8426016E0C2
:10200000012B0AD1012808D184F83F600DE0012B93
:1020100003D1012A01D1012801D0012070BD84F82B
:102020003E6084F83F6084F8426084F8436091B178
:10203000042904D001220021206801F0DFFF0122E1
:102040000421206801F0DAFF2068016841F00101F5
:102050000160002070BD012200212068F2E7704776
:1020600070B50446006801694FF00005C94389074F
:1020700015D4C168C943890711D4E91E0161012043
:102080002077206880698007204602D0FFF7E7FFAD
:1020900004E000F0BFF8204600F04EF925772068F4
:1020A0000169C943490717D4C168C943490713D413
:1020B0006FF004010161022020772068806910F42C
:1020C000407F204602D0FFF7CAFF04E000F0A2F8EC
:1020D000204600F031F9257720680169C9430907D6
:1020E00016D4C168C943090712D46FF00801016111
:1020F000042020772068C0698007204602D0FFF7BF
:10210000AEFF04E000F086F8204600F015F92577D0
:1021100020680169C943C90617D4C168C943C90603
:1021200013D46FF010010161082020772068C06986
:1021300010F4407F204602D0FFF791FF04E000F04A
:1021400069F8204600F0F8F8257720680169C9434E
:10215000C90708D1C168C943C90704D1891E0161F3
:10216000204600F03BF920680169C943090609D4FB
:10217000C168C943090605D46FF08001016120469A
:10218000FFF736FD20680169C943490609D4C168D3
:10219000C943490605D46FF040010161204600F0B3
:1021A0001EF920680169C94389060BD4C168C94377
:1021B000890607D46FF0200101612046BDE8704018
:1021C000FFF717BD70BD000000B585B0002100917C
:1021D00001910291039100680B49884212D10B488A
:1021E000816941F0040181618069694600F0040061
:1021F00004904FF410600090022001900390044876
:10220000FEF7D4FF05B000BD002C014000100240D5
:1022100000080140704770B5044690F83C000D4638
:1022200001280AD0012084F83C0042B1042A18D0C9
:10223000082A2AD00C2A4DD139E0022070BD20682E
:1022400001F0FCFE2068816941F00801816120688D
:10225000816921F004018161206881692A69114343
:1022600011E0206801F016FF2068816941F40061E7
:1022700081612068816921F48061816120688169C0
:102280002A6941EA0221816124E0206801F030FFDF
:102290002068C16941F00801C1612068C16921F06D
:1022A0000401C1612068C1692A69114311E02068F5
:1022B00001F04AFF2068C16941F40061C1612068F2
:1022C000C16921F48061C1612068C1692A6941EA5C
:1022D0000221C161002084F83C0070BD10B50400EB
:1022E00003D094F83D0010B107E0012010BD00209C
:1022F00084F83C00204600F01EF8022084F83D00DF
:10230000211D206801F044FE012084F8460084F875
:102310003E0084F83F0084F8400084F8410084F8CF
:10232000420084F8430084F8440084F8450084F8AF
:102330003D00002010BD70477047000010B50446F6
:1023400049B104290AD008290BD094F8410001288A
:102350000AD0012010BD94F83E00F8E794F83F0041
:10236000F5E794F84000F2E7022041B3042929D0B0
:1023700008292AD084F841000122206801F03EFE9D
:1023800013492068884203D1426C42F400424264FF
:102390002068884208D0B0F1804F05D00D498842AE
:1023A00002D00D49884204D1816801F00701062955
:1023B00003D0016841F001010160002010BD84F8E4
:1023C0003E00D9E784F83F00D6E784F84000D3E721
:1023D000002C014000040040000800407047704796
:1023E00070470000006882B00168C943090708D43B
:1023F00001684068009001220349044802B000F0DF
:102400003BBA02B0704700002900002018050020E8
:10241000F8B5026804461068D168536910F00F0FD0
:102420004FF0000553D003F0010601F490773743D5
:102430005FD0C20705D0CA0503D5226C42F0010265
:102440002264420705D5DA0703D0226C42F002026B
:102450002264820705D5DA0703D0226C42F0040219
:102460002264020707D501F02002324303D0226C18
:1024700042F008022264226C002A34D0800604D57F
:10248000880602D5204601F0C4FE20684069216C10
:10249000C0F38010090700D430B3204601F0A1FE3C
:1024A0002068416949061BD5416921F0400141611D
:1024B000A06BA8B158494163A06BFEF7B3FD00289B
:1024C00011D0A06B416B01B0BDE8F0400847830616
:1024D0000FD58B060DD52046BDE8F84001F099BE1A
:1024E0002046FFF77FFFF8BD2046FFF77BFF2564FE
:1024F000F8BD266B2023012E52D1C60650D5CE063C
:102500004ED5106850680090506940062AD5A16BDE
:10251000086840680004000CEAD0A68D8642E7D91E
:10252000E0858869202818D0D06820F48070D060B9
:102530002068416921F0010141612068416921F071
:102540004001416184F83E3025632068C16821F074
:102550001001C160A06BFEF741FDA08DE18D401A16
:1025600081B219E0A08DE18D401A81B2E08D002882
:10257000BED00029BCD0D06820F49070D060206814
:10258000426922F00102426184F83E3025632068EE
:10259000C26822F01002C2602046FFF721FFF8BD9A
:1025A00005062BD50D0629D594F83D002128F6D136
:1025B000A068B0F5805F01D12069B0B1206A411CEC
:1025C0002162216800784860E08C401E0004000C05
:1025D000E084E4D12068C16821F08001C1602068F6
:1025E000C16841F04001C160F8BD206A0088C0F3B5
:1025F00008005060206A801C2062E5E74006F3D5A1
:102600004806F1D5D168204621F04001D16084F818
:102610003D3000F033FAF8BDD341000870B5040036
:1026200004D094F83D00002510B106E0012070BDF3
:1026300084F83C50204600F023F8242084F83D0024
:102640002068C16821F40051C160204601F03CFEC1
:102650002068016921F4904101612068416921F0FD
:102660002A0141612068C16841F40051C1602564BC
:10267000202084F83D0084F83E00002070BD00005A
:10268000F0B585B000240094019402940394444969
:102690000068424F02220323424D0E15B84225D155
:1026A000886940F480408861886900F48040049023
:1026B000886940F0040088618869039300F0040091
:1026C00004904815CDE9000269462846FEF76EFDE4
:1026D000CDE90064694628460294FEF767FD0022B2
:1026E00005212520FEF7DEFE252028E02E4FB842EA
:1026F00029D1C86940F40030C861C86900F40030CD
:102700000490886940F0040088618869694600F097
:10271000040004900420CDE9000203932846FEF74C
:1027200045FD0820CDE90004694628460294FEF7DD
:102730003DFD002205212620FEF7B4FE2620FEF7EF
:10274000A3FE05B0F0BD194DA842FAD1C86940F406
:102750008020C861C86900F480200490886940F036
:10276000080088618869124D00F00800CDE9033047
:10277000CDE9006269462846FEF718FDE814CDE968
:102780000004694628460294FEF710FD0022052148
:102790002720FEF787FE2720D1E700000038014000
:1027A0000010024000080140004400400048004082
:1027B000000C01402DE9F84F044690F83E00984681
:1027C00015460E46202855D10EB305B394F83C00AB
:1027D00001284FD0012084F83C004FF00009C4F8D4
:1027E0004090222184F83E10C4F83090FEF7D6FDC8
:1027F000A5858246E585A0684FF48057B84201D18F
:10280000206938B13546002684F83C9027E0012045
:10281000BDE8F88F0025F7E7534600222021204627
:10282000CDF8008001F0C7FD08B10320F0E725B125
:10283000A068B8421BD038B108E020684068C0F3F7
:10284000080026F8020B07E0206980B12068406884
:1028500000F07F0005F8010BE08D401EE085E08D63
:102860000028D9D1202084F83E000020D0E720683D
:102870004068EFE70220CBE790F83E30202B0ED1E6
:1028800059B152B190F83C30012B08D0012380F8A7
:102890003C300023036301F073BD01207047022028
:1028A00070470000FEB50024404900948DF80440B4
:1028B0008DF80840884277D13D4D4FF07E562878FC
:1028C000412803D13046314602F0A8FF287842283B
:1028D00003D13848014602F0A1FF2878432803D1EC
:1028E0000021084602F09AFF28784FF080474428DC
:1028F00003D13946304602F091FF2878452803D1AC
:102900003146384602F08AFF2878462801D102F085
:10291000B9FF2878472801D102F0A2FF287826497C
:10292000264E482805D049280AD0254E4A280FD0DF
:1029300027E0244A3068904231DCFDF77AFC05E05C
:10294000214A306890422AD8FDF7C5FC306026E065
:102950006A4601A9306804F03DF8012802D08DF8DC
:10296000044003E09DF8040006280ED09DF8040002
:10297000401C8DF8080000236A4602A9306803F065
:102980002FFF28784B2802D009E00120F1E78DF8CD
:10299000084002236A4602A9306803F021FF0122A1
:1029A00003490248FFF768FFFEBD00005C050020F8
:1029B00028000020000080BF0000B442680700200B
:1029C0005000002000003443000034C32DE9F843D8
:1029D000044690F83D001F4615460E4620284BD170
:1029E000C6B1BDB194F83C00012845D0012084F85F
:1029F0003C004FF00008C4F84080212084F83D00DE
:102A0000FEF7CCFCA5848146E584A068B0F5805F24
:102A100003D004E00120BDE8F883206920B13546E9
:102A2000002684F83C800EE00025FAE7802120464D
:102A300001F0C1FCA0B9ADB115F8010B21684860E7
:102A4000E08C401EE084E08C4B464FF00002009783
:102A50000028EBD14FF04001204601F0ACFC30B132
:102A60000320D8E736F8020BC0F30800E6E7202081
:102A700084F83D000020CEE70220CCE7704700003C
:102A8000064908B50968064AC908B1FBF2F1414395
:102A90000091491E0091FCD208BD00006C0000208E
:102AA00040420F0070B5204D00240122202128460D
:102AB000FEF76FFC0F20FFF7E3FF002220212846DE
:102AC000FEF767FC194D1A4E07E00120641CFFF762
:102AD000D7FFAC4201D9174870BD40213046FEF700
:102AE0004BFC0028F1D0002408E00120641CFFF713
:102AF000C7FFAC4202D94FF0404070BD4021304684
:102B0000FEF73AFC0128F0D06000FDF7D5FD0A4A37
:102B10000A4BFDF7CBFC4FF0FF32FDF7A8FDBDE8F7
:102B20007040FDF71BBE0000000C0140A0860100B4
:102B300000080140000080BF4C37894160E5A03F9C
:102B4000FEE700002DE9F04101220C4DD40321469F
:102B50002846FEF71EFC0122094F1603314638466F
:102B6000FEF717FC002231463846FEF712FC2146DC
:102B70002846BDE8F0410022FEF70BBC00080140EA
:102B8000000C014070B50122D1030948FEF701FC99
:102B9000084D4FF48054002221462846FEF7F9FBE9
:102BA00021462846BDE870400122FEF7F2BB000036
:102BB00000080140000C014070B50122064DD4030D
:102BC00021462846FEF7E5FB21462846BDE8704031
:102BD0000022FEF7DEBB00000008014070B5144D76
:102BE0004FF48074002221462846FEF7D2FB2A1DAE
:102BF000106820F0F0001060106840F030001060A5
:102C0000002261002846FEF7C4FB022003F012F800
:102C1000012221462846FEF7BCFB022003F00AF8F9
:102C200021462846BDE870400022FEF7B2BB0000F6
:102C3000000C014070B5144D4FF480740022214601
:102C40002846FEF7A6FB2A1D106820F0F000106051
:102C5000106840F030001060012251022846FEF753
:102C600098FB022002F0E6FF012221462846FEF7EB
:102C700090FB022002F0DEFF21462846BDE87040AE
:102C80000022FEF786BB0000000C01402DE9F04752
:102C900080461B480024016821F0F00101600168B2
:102CA00041F08001016086152546071F4FF4007929
:102CB000002231463846FEF76CFB022002F0BAFFD4
:102CC000012231463846FEF764FB6006040E494691
:102CD0003846FEF751FB08B1641CE4B2022002F052
:102CE000A9FF6D1CEDB2082DE2D3B8F1000F04D09E
:102CF000FFF774FF2046BDE8F087FFF79BFFF9E779
:102D0000040C01402DE9F04105461A48016821F004
:102D1000F0010160016841F0300101608615071F74
:102D2000002231463846FEF734FB00244FF4007889
:102D3000280601D5012200E0002241463846FEF770
:102D400028FB6806050E012231463846FEF721FBB6
:102D5000022002F06FFF002231463846FEF719FBD1
:102D6000022002F067FF641CE4B2082CE0D3BDE847
:102D7000F0810000040C014070B51448016821F096
:102D8000F0010160016841F0300101604415051F48
:102D9000012221462846FEF7FCFA0122160231469E
:102DA0002846FEF7F6FA022002F044FF00222146F0
:102DB0002846FEF7EEFA022002F03CFF3146284694
:102DC000BDE870400022FEF7E4BA0000040C0140A8
:102DD00070B51448016821F0F0010160016841F00C
:102DE000300101608415051F002221462846FEF7A8
:102DF000D0FA6600002231462846FEF7CAFA0220C1
:102E000002F018FF012221462846FEF7C2FA0122ED
:102E100031462846FEF7BDFABDE87040022002F0B8
:102E200009BF0000040C01402DE9F04119480024BD
:102E3000016821F0F0010160016841F0800101604A
:102E40004615051F012231462846FEF7A2FA022048
:102E500002F0F0FE0122170239462846FEF799FAE1
:102E6000022002F0E7FE08E0641CE4B2FA2C04D968
:102E7000FFF7AEFF0120BDE8F08131462846FEF79E
:102E80007BFA0028F0D1002239462846FEF781FA65
:102E90000020F0E7040C01402DE9F0411C461546E6
:102EA0000F460646FFF768FF7006000EFFF72AFF81
:102EB000FFF7BAFF20B1FFF78BFF0120BDE8F081DB
:102EC0003846FFF71FFFFFF7AFFFFFF755FF012061
:102ED00000EB4600C0B2FFF715FFFFF7A5FF08E0C3
:102EE000012D0CD00120FFF7D1FE6D1E04F8010B5F
:102EF000EDB2002DF4D1FFF76BFF0020DEE70020DC
:102F0000F1E72DE9F0411D4616460C460746FFF74E
:102F100033FF7806000EFFF7F5FEFFF785FF60B977
:102F20002046FFF7EFFEFFF77FFF00240CE0285D4F
:102F3000FFF7E8FEFFF778FF20B1FFF749FF012018
:102F4000BDE8F081641CE4B2B442F0D3FFF740FF67
:102F50000020F5E73EB500211148009101910F4A8C
:102F60000291026081600173017501244FF46022B7
:102F70000461C2614160FDF779FE08B1FDF7F1FD22
:102F80000420CDE900040220029069460448FDF7C0
:102F9000EBFD002801D0FDF7E4FD3EBD0028014017
:102FA000CC03002010B51D48A0B01CAC0FC884E8AD
:102FB0000F0000211CA802F05BFE194C17491C22CF
:102FC000206110316846FDF709F90021684602F0DA
:102FD00062FE124920601C222C3107A8FDF7FEF882
:102FE000002107A802F057FE0C4960601C224831FE
:102FF0000EA8FDF7F3F800210EA802F04CFE0749D9
:10300000A0601C22643115A8FDF7E8F8002115A87E
:1030100002F041FEE06020B010BD00004C6E0008E0
:10302000400000202DE9F04786B000244E4800946F
:10303000019402940394816941F0100181618169D6
:1030400001F010010491816941F0200181618169E1
:1030500001F020010491816941F0040181618169DD
:1030600001F004010491816941F0080181618069E6
:103070003E4F00F008004FF400550490002229460E
:103080003846FEF786F9DFF8E8A001224FF49851A0
:103090005046FEF77EF9002242F228015046FEF724
:1030A00078F9DFF8D0904FF40048012241464846B5
:1030B000FEF76FF90095022601250396CDE901542C
:1030C00069463846FEF772F8E020CDE9000469460B
:1030D00048460294FEF76AF80320CDE900046946E9
:1030E00050460294FEF762F82F03CDE90075CDE952
:1030F000025669465046FEF759F842F22830CDE9AB
:103100000005CDE9024669465046FEF74FF81A48D9
:103110000097CDE9010569464846FEF747F8CDE935
:103120000085CDE9025669464846FEF73FF8102073
:1031300000901248CDE9010669465046FEF736F880
:10314000002205210A20FEF7ADF90A20FEF79CF9BE
:10315000002205212820FEF7A5F92820FEF794F982
:1031600006B0BDE8F08700000010024000100140EA
:10317000000C014000080140000021100000111067
:1031800010B596B000240F941094119412941394D7
:103190001C2168461494FDF73AF8202107A8FDF792
:1031A00036F82D482B49016040F29F51C0E90114C7
:1031B0006321C0E903148021C0E90541FEF778FDD1
:1031C00008B1FDF7CEFC4FF480500F900FA92248B4
:1031D000FEF7E6FD08B1FDF7C4FC1F48FFF77EF8D7
:1031E00008B1FDF7BEFC139413A91B481494FEF715
:1031F0002BFD08B1FDF7B5FC602000903220CDE931
:10320000010403940494059400226946124806942C
:10321000FFF701F808B1FDF7A4FC0C2269460E483F
:10322000FEF7F9FF08B1FDF79CFC07940894099498
:103230004FF400500A94CDE90B4007A906480E94BC
:10324000FEF7D8FC08B1FDF78CFC0348FEF7BCFF85
:1032500016B010BD002C0140FC03002010B58CB04E
:1032600024216846FCF7D3FF0024164809944FF048
:1032700080410A94C0E900144FF6FF71C0E9024191
:10328000046184610320CDE900040120CDE902043A
:1032900006210491CDE90540CDE907416946094879
:1032A000FEF7E9FD08B1FDF75CFC099409A90548A2
:1032B0000A94FEF7C9FC002801D0FDF752FC0CB0BF
:1032C00010BD00004404002010B58CB024216846D5
:1032D000FCF79DFF00241648099414490A94C0E99C
:1032E00000144FF6FF71C0E90241046184610320BC
:1032F000CDE900040120CDE9020406210491CDE9C5
:103300000540CDE9074169460948FEF7B4FD08B11B
:10331000FDF727FC099409A905480A94FEF794FCD7
:10332000002801D0FDF71DFC0CB010BD00080040C6
:103330008C0400200C4810B50A4901604FF4E131BB
:103340004160002181600C22C160C0E904128161EA
:10335000C161FFF763F9002803D0BDE81040FDF715
:1033600000BC10BD00380140D40400200C4810B54A
:103370000A4901604FF4E1314160002181600C2273
:10338000C160C0E904128161C161FFF747F90028FB
:1033900003D0BDE81040FDF7E4BB10BD0044004081
:1033A000180500200C4810B50A4901604FF4E131BE
:1033B0004160002181600C22C160C0E9041281617A
:1033C000C161FFF72BF9002803D0BDE81040FDF7DD
:1033D000C8BB10BD004800405C050020FEE70000AF
:1033E00070B51A4E4542C1F1000401D5012200E03A
:1033F000002208213046FDF7CCFF4FF40051002C8D
:1034000001DA012200E000223046FDF7C2FF104839
:103410006FF06201002D05DA8D4200DA0D46643549
:10342000026803E0632D00DD632502685563002C0C
:1034300005DA8C4200DA0C460068643403E0632C41
:1034400000DD63240068046470BD0000000C0140CE
:10345000FC030020FEE770B50025002105F1B00057
:1034600000F0FDF80021084600F0F9F800211020D6
:1034700000F0F5F800240121002000F0F0F8641CB1
:10348000E4B2802CF7D36D1CEDB2082DE5D370BDEE
:1034900010B54FF44870FDF711FE0021AE2000F08A
:1034A000DEF80021084600F0DAF80021102000F0D4
:1034B000D6F80021402000F0D2F80021B02000F022
:1034C000CEF80021812000F0CAF80021FF2000F092
:1034D000C6F80021A12000F0C2F80021A62000F0CB
:1034E000BEF80021A82000F0BAF800213F2000F02B
:1034F000B6F80021C82000F0B2F80021D32000F077
:10350000AEF80021084600F0AAF80021D52000F00E
:10351000A6F80021802000F0A2F80021D82000F0B9
:103520009EF80021052000F09AF80021D92000F033
:1035300096F80021F12000F092F80021DA2000F046
:103540008EF80021122000F08AF80021DB2000F024
:1035500086F80021302000F082F800218D2000F054
:103560007EF80021142000F07AF80021BDE8104018
:10357000AF2000F074B810B50A460446002102F1ED
:10358000B00000F06CF8102040EA1410002100F0A8
:1035900066F804F00F00BDE81040002100F05FB8AD
:1035A0002DE9F041203A00240F468046D5B27F280D
:1035B00003D900208F1C8046FFB2102B394610D053
:1035C000FFF7D9FF164905EB450001EB4005012146
:1035D000285D00F044F8641CE4B2062CF7D3BDE883
:1035E000F081FFF7C8FF0F4E04EB05100121305C9E
:1035F00000F035F8641CE4B2082CF5D37F1CF9B256
:103600004046FFF7B8FF002404EB051030440121C9
:10361000007A00F024F8641CE4B2082CF4D3DEE74E
:10362000E46E00080C7100082DE9F0419846174639
:103630000E46044600250DE0434631462046FFF77E
:10364000AFFF0834E4B2782C02D90024B61CF6B2DD
:103650006D1CEDB27A5D002AEED1BDE8F081C0B2FA
:1036600009B100F052BF00F039BF00001C49002032
:103670001C4B486008608860C860C1E904031A4AAE
:10368000C1E906202031486008608860C860C1E94F
:103690000403C1E906202031144A486008608860AC
:1036A000C860C1E90402124AC1E906022031114A88
:1036B000C1E9002088604FF03F42C860C1E90402C0
:1036C0000D4AC1E9062020310C4A48600860886034
:1036D000C860C1E9040288610948C86170470000F8
:1036E000E8060020000070410000A0400000C0BFBC
:1036F000CDCC4C3F0000B4416F1283BA0AD7A33C33
:10370000CDCCCC3D2DE9F04104460068FCF7E3FD4B
:103710000546A06029462069FCF78BFD206107461D
:103720002846E168FCF7D7FDE169FCF7DAFD0646BB
:103730003946A069FCF7D5FD074629466069FCF7C4
:10374000D0FD3946FCF775FD3146FCF772FDE560AA
:103750006060BDE8F0810000064D4FF400544FF466
:10376000967621462846FDF70CFE304602F074FAA4
:10377000F7E700000010014086B0B44CDFF8D0A29B
:10378000B448002204A9006903F088F820B19DF82C
:103790001000012804D08AE000208DF8100050E1CC
:1037A000AD4E20213046FDF7E7FDAC4D802128705D
:1037B0003046FDF7E1FDAA4E687001213046FDF765
:1037C000DBFDA87002213046FDF7D6FDE8702978B0
:1037D00019B1012919D021B130E0697821B101294D
:1037E0000ED0697811B129E0A97829B1A978012909
:1037F0001AD011B119D021E0F8B101281AD01DE07A
:10380000A978D9B9D0B9FF2017E0697811B1012999
:1038100005D013E0A97889B980B9FE200DE0A97818
:1038200061B958B9FD2008E010B1012804D005E0C5
:10383000012002E0022000E00320207094F9000043
:10384000FCF72CFF01468748FFF75CFF8649DFF84D
:103850001C82074608604146FCF7EBFC844D064697
:10386000394628604046FCF736FD8249824A0860A6
:10387000964201DD2A6004E016F1FF4F01D30023D8
:103880002B60904201DD0A6004E010F1FF4F01D38C
:1038900000200860794E94F9000096F900209042CB
:1038A00003D00968286801F0B9FF207830709DF8CE
:1038B0001000022838D1FFF7F5F8714DA84203DD5A
:1038C0004FF07E5001461DE06E4F4FF07E56314660
:1038D000384601F0A3FF4FF4FA7002F0BDF9FFF78C
:1038E000E1F8A8420CDC3946304601F097FF4FF46E
:1038F0007A78404602F0B0F9FFF7D4F8A84205DD27
:103900003046314601F08AFF64200BE03946084614
:1039100001F084FF404602F09FF93146384601F03D
:103920007DFF322002F098F99DF8100003281AD18B
:10393000FFF7B8F8544908605449884218DA01463C
:103940005348FFF7DFFE5349534A0860904202DCB8
:10395000524A904200D90A600968084601F05EFFA9
:103960000A2002F079F99DF81000042803D068E0DD
:1039700000210846F2E7D146DAF80000FCF7C2FE63
:103980000746474888460068FCF7BCFE05464548A0
:103990000E460068FCF7B6FE8DE8E0010B460246D5
:1039A00041A1494800F0D8FD4748FCF73BFC82B2F2
:1039B0004FF6FF7344494548FFF708F8CA46DFF859
:1039C00010B1444E00254FF07F59214A3449354803
:1039D00001F06CFF10B940A000F0AEFD132D02D134
:1039E00044A000F0A9FD4A48DAF80010FFF78AFE6B
:1039F00080464946CBF80000FCF71BFC07463060C8
:103A000041464846FCF767FC4249434A08609742F2
:103A100001DD326004E017F1FF4F01D30023336072
:103A2000904201DD0A6004E010F1FF4F01D3002055
:103A300008600968306801F0F1FE6D1CEDB2142DCC
:103A4000C3D3012002F008F99AE600000C00002020
:103A50003C00002040000020000801400800002039
:103A6000000C0140280700201C00002000004040FE
:103A700020000020240000200000A0400D000020B5
:103A80000000C841000080BF2C00002000007042F0
:103A900048070020300000200000C0400000C0C0E7
:103AA000380000203400002070697463683A252EC5
:103AB000326620726F6C6C3A252E326620796177FF
:103AC0003A252E32660D0A00460100205C050020D2
:103AD00010000020140000206D70755F646D705F31
:103AE0006765745F64617461282920737563636519
:103AF00073730A006D70755F646D705F6765745FE6
:103B000064617461282920206661696C0A000000E4
:103B10006807002018000020000060400EB5DFF8A4
:103B200084B2DFF88482DFF88492DFF884A2A148AF
:103B3000002202A9006902F0B1FE10B900208DF840
:103B400008009DF808209CA19F4800F005FD0C236B
:103B50009D4A06210020FFF767FD9C489CA1026852
:103B6000994800F0F9FC0C23974A07210020FFF741
:103B70005BFD9DF8082090A1984800F0EDFC974867
:103B8000FCF750FB82B2322394499548FEF71EFFA2
:103B90005D46DBF80000FCF7B5FD04460E46D8F89C
:103BA0000000FCF7AFFDCDE9004602460B468DA1B3
:103BB000854800F0D1FC00210C23834A0846FFF71A
:103BC00033FDD9F80000FCF79DFD02460B4689A1A4
:103BD0007D4800F0C1FC0C237B4A01210020FFF747
:103BE00023FD01F0CDF9FCF78DFD02460B4685A1C2
:103BF000754800F0B1FC0C23734A02210020FFF746
:103C000013FDFEF74FFFFCF77DFD02460B467FA13B
:103C10006D4800F0A1FC0C236B4A03210020FFF744
:103C200003FD7F4E3068FCF76DFD04460F46DAF861
:103C30000000FCF767FDCDE9004702460B4679A17D
:103C4000614800F089FC0C235F4A04210020FFF743
:103C5000EBFC794F3868FCF755FD02460B4677A11F
:103C6000594800F079FC0C23574A05210020FFF742
:103C7000DBFC2868FCF746FD04460D46D8F800003A
:103C8000FCF740FD02460B4656A15448CDE90045DD
:103C900000F062FC5148FCF7C5FA82B232234F496A
:103CA0004F48FEF793FED9F80000FCF72BFD0246C3
:103CB0000B4650A1494800F04FFC4848FCF7B2FAC7
:103CC00082B2322345494648FEF780FE01F058F99A
:103CD000FCF718FD02460B464AA1404800F03CFCA8
:103CE0003E48FCF79FFA82B232233C493C48FEF73B
:103CF0006DFEFEF7D7FEFCF705FD02460B4643A11D
:103D0000364800F029FC3548FCF78CFA82B23223A1
:103D100032493348FEF75AFE3068FCF7F3FC04469C
:103D20000D46DAF80000FCF7EDFC02460B463DA11B
:103D30002A48CDE9004500F00FFC2848FCF772FA4C
:103D400082B2322325492648FEF740FE3868FCF748
:103D5000D9FC02460B4639A1204800F0FDFB1F4864
:103D6000FCF760FA82B232231C491D48FEF72EFE92
:103D70000024314A2A490E4801F098FD10B1132C55
:103D800004D006E030A000F0D7FB06E036A000F03B
:103D9000D3FB641CE4B2142CEBD30A2001F05CFFCB
:103DA000C5E6000004000020000000205C000020A8
:103DB000340000204000002020675F75634D6F6471
:103DC000653A256400000000140100205400002022
:103DD0006C48573A2564202000000000460100206E
:103DE0005C05002056313A252E326656323A252E91
:103DF000326600004D696C656167653A252E326652
:103E000000000000553A252E3266560048435F53A5
:103E10005230343A252E3266636D0D0A00000000E0
:103E200038000020703A252E326620723A252E3254
:103E300066200D0A000000003C000020793A252E83
:103E4000326620200D0A00006D70755F646D705F32
:103E50006765745F646174612829202073756363EA
:103E60006573730A000000006D70755F646D705FAC
:103E70006765745F64617461282920206661696CDC
:103E80000A00000008B50B4C002500226946206995
:103E900002F004FD18B19DF8000010B105E08DF8A6
:103EA00000500021084601F0B9FC0A2001F0D4FEC0
:103EB000EBE700004000002010B5502080F311888F
:103EC000BFF34F8FBFF36F8F02F074FE18B1044938
:103ED0004FF080500860002080F3118810BD000072
:103EE00004ED00E030B593B028216846FCF78FF967
:103EF00014210AA8FCF78BF9002401210F941094D7
:103F00000804CDE900101194129402940225049142
:103F1000CDE907504FF4E01009906846FDF7DCFC4E
:103F200008B172B6FEE70F20CDE90A054FF48060B4
:103F3000CDE90C4002210AA80E94FDF7BBFB08B1A5
:103F400072B6FEE74FF4004011900F950FA8FDF7F1
:103F50003DFB002801D072B6FEE713B030BD7047BC
:103F60000148FEF77DB80000FC0300200148FEF781
:103F700077B80000440400200148FEF771B8000043
:103F8000A00600200148FEF76BB800008C0400205A
:103F9000F0B50268164C174D174E4FF08047A042FF
:103FA00005D0B84203D0A84201D0B04203D122F0DC
:103FB00070034A681A43A04205D0B84203D0A84211
:103FC00001D0B04203D122F44073CA681A434B694E
:103FD00022F080021A4302608A68C2620A68826222
:103FE000A04201D10969016301214161F0BD0000D6
:103FF000002C0140000400400008004010B501F012
:104000001F010123046A8B409C430462036A8A40B7
:104010001343036210BD10B5846842EA032224F4FE
:104020007F440A432243826010BD826822F07002FE
:104030000A4342F0070181607047000030B5026A10
:1040400022F001020262036A4268846924F0730567
:104050000C682C4323F002058B682B430C4DA842BF
:1040600006D123F00805CB6843EA050323F00403D7
:1040700007D14D6922F4407245EA02058A6942EA95
:1040800005024260846149684163036230BD0000FB
:10409000002C014030B5026A22F010020262026A6E
:1040A000436884690D6824F4E64444EA05248D6875
:1040B00022F0200242EA05120C4DA84206D1CD683A
:1040C00022F0800242EA051222F0400207D14D6937
:1040D00023F4406343EA85038D6943EA8503436023
:1040E000846149688163026230BD0000002C014098
:1040F00030B5026A22F480720262036A4268C469BF
:1041000023F4007324F073050C682C438D6843EA94
:1041100005230C4DA84206D1CD6823F4006343EA81
:10412000052323F4806307D14D6922F4405242EA0B
:1041300005128D6942EA05124260C4614968C16393
:10414000036230BD002C014030B5026A22F4805277
:104150000262036A4268C4690D6824F4E64444EAD2
:1041600005248D6823F4005343EA0533064DA84225
:1041700004D14D6922F4804242EA85124260C46152
:1041800049680164036230BD002C014010B5046A27
:10419000036A23F001030362836923F0F00343EA17
:1041A000021324F00A020A438361026210BD10B5B3
:1041B000036A23F0100303628469036A24F47044E1
:1041C00044EA023223F0A00343EA01118261016252
:1041D00010BD10B5406A0021C185C184FEF702F907
:1041E00010BD0168CA6822F49072CA6001684A6909
:1041F00022F001024A61016B012904D10168CA68F9
:1042000022F01002CA60202180F83E1000210163D4
:10421000704708B590F83E10222901D0022008BD51
:1042200081684FF48053994201D1026922B1826AB8
:1042300099421BD049B10AE00268816A5268C2F310
:1042400008020A80816A891C08E0016971B101686D
:10425000496801F07F011170816A491C8162C18D3A
:10426000491E0904090CC18503D019E00168496899
:10427000F1E70168CA6822F02002CA600168CA68D2
:1042800022F48072CA6001684A6922F001024A6120
:10429000202180F83E10016B012903D0FEF702FBBC
:1042A000002008BD002101630168CA6822F01002E5
:1042B000CA6001680A68D20602D50A684968009196
:1042C000818DFEF78DF8EBE770B504460068016953
:1042D000E26821F4405111430161A1682069014362
:1042E000606901432068C26841F20C639A430A4343
:1042F000C26020684169A26921F4407111434161A3
:104300001E492068884202D1FDF7A0FA01E0FDF7BE
:104310008DFA00EBC00101EB00116068642280009F
:10432000B1FBF0F3B3FBF2F36FF018067343B1FB8C
:10433000F0F5B1FBF0F605EB8305322303EB051531
:10434000B5FBF2F5B6FBF2F605F0F00505EB061548
:10435000B1FBF0F6B1FBF0F0B0FBF2F06FF018013A
:10436000484306EB800003EB0010B0FBF2F021683D
:1043700000F00F002844886070BD00000038014044
:1043800081628285C28500210164222280F83E205C
:1043900080F83C100168CA6842F48072CA60016803
:1043A0004A6942F001024A610068C16841F0200197
:1043B000C160002070472DE9F0411E46174688462F
:1043C0000446069D1CE0681C1AD025B1FCF7E6FFE8
:1043D000801BA84214D92068C16821F4D071C16043
:1043E0002068416921F001014161202084F83D00ED
:1043F00084F83E00002084F83C000320BDE8F081F2
:104400002068016838EA010004D00020B842DAD000
:104410000020F3E70120F9E70D4810B500680068B7
:10442000800610D50B4A1078FF2801D300201070A9
:104430000949C0B20144401C10704FF47A73012244
:104440000348FEF7B7F9BDE810400148FDF7E0BFAB
:10445000D404002058000020A00500200148FDF7EA
:10446000D7BF0000180500200148FDF7D1BF0000AC
:104470005C050020FEE700002DE9F047154F0446DB
:104480004FF40046002231463846FCF782FFDFF841
:10449000489000254FF4805804F08000802816D002
:1044A000002241464846FCF774FF6006040E0122D4
:1044B00031463846FCF76DFF002231463846FCF79E
:1044C00068FF6D1CEDB2082DE6D3BDE8F087012230
:1044D000E7E7000000080140000C014010B5044669
:1044E000FEF730FB7820FFF7C7FFFEF765FB0020E3
:1044F000FFF7C2FFFEF760FB2046FFF7BDFFFEF7A8
:104500005BFBBDE81040FEF73DBB10B50446FEF76F
:1045100019FB7820FFF7B0FFFEF74EFB4020FFF7B6
:10452000ABFFFEF749FB2046FFF7A6FFFEF744FB73
:10453000BDE81040FEF726BB0FB4054B10B503A92C
:10454000044A029800F080F910BC5DF814FB0000EA
:10455000315700080C0100200FB4084B10B504A916
:1045600002AA039800F070F9044602A9002000F0A6
:1045700002FD204610BC5DF814FB0000774F0008D8
:10458000490050EAC12018BF04204A0D18BF40F06E
:10459000010040F2FF72B2EB515F08BF40F0020031
:1045A000012808BF052070470907090E002804DB11
:1045B00000F1E02080F80014704700F00F0000F1D7
:1045C000E02080F8141D70472DE9F0414F1E00EBEC
:1045D000C7010446D1E9000115461E4637F0060220
:1045E0000DD02A463346FBF761FF7F1E04EBC7035D
:1045F000D3E90023FBF7B3FE37F00602F1D1022F17
:1046000025D0042F13D0062F18BFBDE8F0812A460D
:104610003346FBF74BFFD4E90A23FBF7A0FE2A46FB
:104620003346FBF743FFD4E90823FBF798FE2A46FD
:104630003346FBF73BFFD4E90623FBF790FE2A46FF
:104640003346FBF733FFD4E90423FBF788FE2A4601
:104650003346FBF72BFFD4E90223FBF780FE2A4603
:104660003346FBF723FFD4E90023BDE8F041FBF715
:1046700076BE0122FBF7FBBFFBF771BE002213469B
:1046800010461146FBF784BF024A00201107FBF7D2
:10469000EEBF000001FDFFFF02E008C8121F08C1C5
:1046A000002AFAD170477047002001E001C1121FB3
:1046B000002AFBD1704700000149086070470000E4
:1046C000100100202DE9FF5F82B00021DDE90430F8
:1046D000020DDDF840B0034318D044F61050A2F2AA
:1046E000FF3242431514119801281FD0A5EB0B008F
:1046F000401C5FEA000A4FF000064E4FDFF8389189
:10470000B046504615D5CAF1000413E011980124B3
:104710004AA3012801D16FEA0B010298119AC0E95E
:104720000031C0E9024206B0BDE8F09FCBF10000C5
:10473000DFE704460021404A491842EB0450CDE926
:10474000001012E0E00707D032463B46404649469B
:10475000FBF7ACFE8046894632463B46104619467A
:10476000FBF7A4FE06460F466410002CEAD1DDE9F3
:104770000401DDE90023BAF1000F06DAFBF796FE2B
:1047800042464B46FBF792FE05E0FBF701FF42462F
:104790004B46FBF7FDFE04460E460022284BFBF776
:1047A000C5FF03D84FF0FF30014607E00022254B3C
:1047B00020463146FBF7D3FDFCF7E8F8102409E06A
:1047C000002C0ADB0A220023FBF7FAFF039B30329E
:1047D0001A55641E50EA0102F2D1641C039AC4F116
:1047E00011031444119A012A03D0012208430DD168
:1047F0000AE0084304D000204FF0110B119072E73B
:10480000A3EB0B056D1E0DE05B4504DD4FF00002D0
:1048100005F1010504E003DA4FF00002A5F10105FE
:10482000002AECD002981199C0E90231C0E9004594
:1048300079E70000000014400000F03F3000000065
:104840000000F0430000E03F2DE9FF4F95B09B468C
:104850008946064600250FE2252877D10024274601
:10486000F84A0121059400E0044316F8013F203B7B
:1048700001FA03F01042F7D130782A2811D06FF0F6
:104880002F033078A0F13002092A16D8059A44F097
:10489000020402EB820203EB42021044761C0590F4
:1048A000EFE759F8042B0592002A03DA504244F44A
:1048B0000054059044F00204761C30782E2816D15E
:1048C00016F8010F44F004042A280DD06FF02F02CF
:1048D0003078A0F13003092B09D807EB870302EBEE
:1048E0004303C718761CF3E759F8047B761C30782D
:1048F0006C280FD006DC4C2817D068280DD06A2809
:1049000014D104E0742810D07A280FD10DE044F4BB
:1049100000140AE044F4801401E044F44014727876
:10492000824202D104F58014761C761C3078662809
:104930000BD013DC582877D009DC002875D0452827
:10494000F6D04628F4D047281AD19DE118E0632814
:1049500035D0642879D0652812D195E1702873D0BC
:1049600008DC6728F1D069286FD06E280DD06F2839
:1049700006D1B5E073282CD0752875D0782874D06E
:104980005A46179990476D1C75E1C4F302500228EE
:1049900009D003280DD0D9F8001004280DD00D60DF
:1049A00009F1040967E1D9F80010EA17C1E90052DA
:1049B000F6E7D9F800100D80F2E70D70F0E719F86E
:1049C000041B8DF8001000208DF80100EA4601203C
:1049D00003E059F804AB4FF0FF3061074FF00001DE
:1049E00002D40DE008F101018846B9420FDA804592
:1049F000F8DB1AF808100029F4D108E008F10101E9
:104A000088468142FADB1AF808100029F6D1059889
:104A10005B46A0EB080721463846179A00F094FA47
:104A2000284400EB080507E04DE029E10DE01AF805
:104A3000010B5A4617999047B8F10108F7D25B4627
:104A400021463846179A13E142E00A220092C4F345
:104A500002524FF0000A022A08D059F804CB032A68
:104A60004FEAEC710AD00DE029E02AE009F10701D4
:104A700021F00702F2E802C1914609E00FFA8CFC2E
:104A80004FEAEC71042A03D14FFA8CFC4FEAEC7127
:104A9000002907DA0A460021DCF1000C61EB020173
:104AA0002D2202E0220504D52B228DF804200122BC
:104AB00003E0E20701D02022F7E7904659E00A21FF
:104AC00002E010220DE010214FF0000A00910BE0EF
:104AD00010224FF0000A44F004040827009203E07B
:104AE00008224FF0000A0092C4F30252022A05D0B5
:104AF00059F804CB0021032A08D009E009F1070185
:104B000021F00702F2E802C1914605E01FFA8CFC91
:104B1000042A01D10CF0FF0C4FF00008220728D521
:104B2000702806D0009B83F0100353EA0A0305D0D7
:104B30000EE040228DF80420012208E05CEA010228
:104B400006D030228DF804208DF805000222904610
:104B5000009B83F0080353EA0A030AD15CEA0102CE
:104B600001D1620705D530228DF804204FF00108ED
:104B70007F1E582804D034A003900EA802900DE0A8
:104B800036A0F9E753466046009AFBF719FE8446C3
:104B90000398825C0298401E029002705CEA010059
:104BA000F0D1029806A9081A00F1200A600702D580
:104BB00024F4803400E00127574502DDA7EB0A000A
:104BC00000E0002000EB0A01009005984144401AE3
:104BD0000590E00306D45B462146179A059800F03D
:104BE000B3F90544002706E001A85A46C05D1799AD
:104BF00090476D1C7F1C4745F6DBE0030CD55B46F8
:104C00002146179A059800F09FF9054404E03020EA
:104C10005A46179990476D1C0099481E009000292C
:104C2000F5DC08E0029802995A460078491C029186
:104C3000179990476D1CBAF10001AAF1010AF1DC45
:104C400065E1000009280100303132333435363750
:104C500038396162636465660000000030313233C8
:104C60003435363738394142434445460000000068
:104C700000F058F90544761C307800287FF4ECAD3C
:104C800019B02846BDE8F08F620700D4062709F165
:104C9000070222F0070CFCE80223E14603F000487B
:104CA0005FEA080C02D00FF2702C0DE05FEA045CA2
:104CB00002D50FF2682C07E05FEAC47C02D00FF245
:104CC000602C01E0AFF2700C4FF0FF3823F000438E
:104CD000CDF850C065280CD006DC452809D0462800
:104CE0001DD047283DD13DE0662818D067287ED1E9
:104CF00038E00021112F01DB112000E0781CCDE904
:104D0000000106A90EA8FFF7DDFCDDE90F010E9AF0
:104D100003910021009207F1010A04914DE04FF048
:104D200000400097CDE9011006A90EA8FFF7CAFCC4
:104D3000DDE90F0203920E9B11990022DDF80CA011
:104D40000093049211B9791C00EB010AB7EB0A0039
:104D500004D4C0F1FF3007F1010A0490AAEB070068
:104D6000019044E0012F00DA01270021112F01DD1D
:104D7000112000E03846CDE9000106A90EA8FFF792
:104D8000A1FCDDE90F010E9A03910021049100922C
:104D9000BA4621070CD40399514500DA8A46BAF184
:104DA000010F05DD009AAAF10101515C302908D0FC
:104DB000B84202DA10F1040F06DA0121CDE9011040
:104DC00015E0AAF10101E9E7002805DC0499014496
:104DD0000491AAEB000102E0411C514500DD8A4626
:104DE0000499401A401C01904FF0004002902007A7
:104DF00004D40198504501DBCDF8048000208DF8E3
:104E00004F0002980DF14F07B0F1004F25D02B2035
:104E10000E9002984FF0020800280CDA40420290EF
:104E20002D200E9007E00A210298FBF7B3FC3031E9
:104E3000029007F8011DB8F10001A8F10108F2DCA9
:104E400002980028EFD1791E0E980870307800F093
:104E5000200040F0450007F8020D12A8C01B00F129
:104E600007081498007800B1012000EB0A010198AE
:104E700001EBE07105984144401A401E0590E003A3
:104E800006D45B462146179A059800F05DF8054464
:104E90001498007818B15A46179990476D1CE00392
:104EA00024D55B462146179A059800F04DF8054435
:104EB0001CE00498002807DBDDE90301884203DDDC
:104EC0000098405C179901E0179930205A469047A6
:104ED000049805F10105401C04900198401E0190C2
:104EE00004D12E205A46179990476D1CBAF1000143
:104EF000AAF1010ADDDC05E017F8010B5A46179903
:104F000090476D1CB8F10001A8F10108F4DC5B4684
:104F10002146179A0598ABE62D0000002B000000F3
:104F2000200000002DE9F041044600251E461746EA
:104F3000880404D405E039462020B0476D1C641E67
:104F4000F9D52846BDE8F0812DE9F0410446002559
:104F50001E469046C80301D5302700E0202788046C
:104F600004D505E041463846B0476D1C641EF9D5AE
:104F70002846BDE8F0810A68531C0B60107070472A
:104F800010B51148FBF7CAFF32210F48FBF728FF85
:104F900008B10E4810BD0C48FBF764FEFBF787FB19
:104FA0006FF00B01FBF7CFF9FBF7ACFB4FF066326C
:104FB000074BFBF77BFA0022064BFBF777FABDE8BD
:104FC0001040FBF7CBBB0000CC030020000080BFEB
:104FD00066660A40000014402DE9F04D8D4F21F027
:104FE000004A86B005460C46BA452ADBAAEB070004
:104FF00028430AD08848824501DC1AD1CDB106B0D9
:105000002846BDE8F04DFFF734BB844A844B284660
:10501000FBF74CFA07460E46824A834B2846214648
:10502000FBF744FA06B03A463346BDE8F04DFBF7CD
:1050300096B90120FFF740FB06B0BDE8F04DFFF741
:105040001DBB7A48824542DABAF1795F0BDA28460D
:10505000FFF796FA042808BFFFF716FB284606B0AC
:105060002146BDE8F08D2A460B461046FBF71EFA96
:10507000834602466E480E460B4606217844FFF7EB
:10508000A3FA5A463346FBF711FA804669488A4626
:105090005A46334604217844FFF796FA5A46334677
:1050A000FBF704FA00223B46FBF759F902460B4690
:1050B00040465146FBF76CFA2A462346FBF7F6F9C1
:1050C00006B02A462346BDE8F04DFBF748B928460E
:1050D00024F0004100223D463B46FBF7E4F94FF047
:1050E000FF32FBF7C4FA0646024653480F460B460A
:1050F00006217844FFF768FA32463B46FBF7D6F9BB
:10510000CDE900014D4832463B4604217844FFF783
:105110005BFA32463B46FBF7C9F900222B46FBF708
:105120001EF9834602913046394601F09DF88046CB
:1051300043480D46504517DCDDE900015A46029B05
:10514000FBF726FA42462B46FBF7B0F942462B46C0
:10515000FBF705F90122FBF78AFA304A304BFBF7DF
:105160009FF9304A304B4CE04FF0000A52460B4654
:105170004046FBF7F4F8CDE9031052462B461046A3
:105180001946FBF793F932463B46FBF78CF9DDE90C
:105190000332FBF7FDF906460F46DDE900015A46EA
:1051A000029BFBF7F5F98346009101223046394610
:1051B000FBF75DFA194A1A4BFBF775F906460F46DD
:1051C000012240462946FBF752FA5A46009BFBF75C
:1051D0006DF932463B46FBF763F906460F4601225E
:1051E00050462946FBF743FA0E4DDFF858802A4611
:1051F0004346FBF758F932463B46FBF754F92A463B
:105200004346FBF750F9002CD8BF81F0004106B0AF
:10521000BDE8F08D0000F03F0000F07F075C143324
:1052200026A6913C182D4454FB21F93F0000E03F95
:10523000D0260000E62600005A2600007026000056
:105240003333EF3FFB21E93F2DE9F84F04460D468C
:1052500021F0004000917349814211DC724988427B
:1052600001DC06D12CB120462946BDE8F84FFFF7F6
:1052700000BA6E48002DCCBF6D496E49BDE8F88F6D
:105280006D49814211DD6D498142D8BF4FF0FF3633
:105290006DDD20462946FFF773F9042808BFFFF7A4
:1052A000F3F920462946BDE8F88F6549654F25F09A
:1052B0000045814233DD6449814219DD00263246D2
:1052C0004FF0804320462946FBF749F880468A463E
:1052D000012220462946FBF7CAF900223B46FBF78C
:1052E000DFF842465346FBF753F904460D463EE0CD
:1052F00001260022BA463B4620462946FBF72FF8F6
:1053000080460F460022534620462946FBF7C8F840
:1053100042463B46FBF73CF904460D4627E04B4925
:1053200081421BDDDFF828A10226002253462046D9
:105330002946FBF7BBF800223B46FBF710F88046F6
:105340000F460022534620462946FBF7A9F842465D
:105350003B46FBF71DF904460D4608E003262246AE
:105360002B4600203B49FBF713F904460D46224625
:105370002B4610461946FBF799F88B4682460246A3
:105380000B46FBF793F807460246334888460B4620
:1053900006217844FFF718F952465B46FBF786F87A
:1053A00082462E488B463A46434605217844FFF70D
:1053B0000BF93A464346FBF779F802460B46002EB6
:1053C000504659460CDAFAF7CAFF22462B46FBF73D
:1053D0006DF801B022462B46BDE8F04FFBF763B8ED
:1053E000FAF7BDFF22462B46FBF760F81C4A7A44C9
:1053F00002EBC603D3E90023FBF752F822462B4603
:10540000FBF74EF8174A7A4402EBC603D3E90023B0
:10541000FBF749F8009A002AB8BF81F00041BDE8C7
:10542000F88F0000000010440000F07F182D445455
:10543000FB21F93FFB21F9BF0000DC3F0000203ECB
:105440000000F33F0000F03F0000E63F0080034013
:105450000000F83F0000F0BF72240000302400007C
:10546000CE230000962300002DE9F04D9446CCF1A8
:10547000000423F000464CEA0404524F46EAD47478
:105480009A46884621F00042BC4206D8454240EA8E
:10549000050442EAD474BC4204D9BDE8F04D62462A
:1054A000FFF7EAB8AAF14055A5F17F6555EA0C046B
:1054B0000BD0022404EAAA74434DDFF810E144EA59
:1054C000D87452EA000B04D00CE0BDE8F04DFFF7B1
:1054D000BBBE002C14BF012CBDE8F08D022C30D0D7
:1054E000032C32D056EA0C0B0AD0BE4220D1BA426D
:1054F00009D126F0804622F080423346114617E05B
:1055000000291ADB25E0DFF8C8B0FB44002C04BFFB
:10551000DBE90001BDE8F08D012C02BFDBE90001F1
:1055200081F00041BDE8F08D022C0AD0032C0CD094
:10553000BA4212D1B8F1000F0BDA23482549BDE871
:10554000F08D28462449BDE8F08D28467146BDE817
:10555000F08D1D482149BDE8F08D921B12153C2AA3
:10556000C4BF19481D490EDCBAF1000FBEBF12F1CD
:105570003C0F0020014606DB6246FBF709F821F0EC
:105580000041FFF761FE002C08BFBDE8F08D012C43
:1055900004BF81F00041BDE8F08D114A114B022C8F
:1055A00007D0FAF77DFF2A46BDE8F04D0A4BFAF71F
:1055B00077BFFAF775FF2A46BDE8F04D064BFAF7BC
:1055C00072BF00000000F07F182D4454FB2109C079
:1055D0002A230000FB21F9BFFB210940FB21F93FF1
:1055E000075C143326A6A13C2DE9FF4F89B016466F
:1055F000DDE916520024DFF834810F4681462C8005
:10560000A24698F80E00694600F01EFA4FF0FF3BE4
:1056100018B158460DB0BDE8F08FB8F80A0010F088
:10562000140F3CD0009909BA21F0FF0C9DF803102B
:105630004CEA010CC6F800C0019909BA21F0FF0339
:105640009DF807100B43736002999DF80B2009BA6F
:1056500021F0FF011143B160039A9DF80F4012BA87
:1056600022F0FF022243F2604FEA2C4609141B1479
:1056700012147643494303FB036302FB02111944EE
:105680001024A1F17061B1F1007F04D900F024FA77
:10569000A5F800A0BDE7298841F480712980410662
:1056A0006A460ED51119A41D0B885BBA3B804B8846
:1056B0005BBA7B80898849BAB980298841F00801A2
:1056C000298010F4C07F11D01119A41D0B885BBA7A
:1056D000A9F800304B885BBAA9F80230898849BA2A
:1056E000A9F80410298841F070012980800718D09A
:1056F0001444E07800F0C00500F03F016078C00776
:1057000007D0C80801F00701D8F80020491C02B1F1
:1057100090476078000704D5D8F8041009B1A809AB
:1057200088470C9800F078F8002073E7880700207D
:1057300013B54FF6FF73012269460248FDF746F99B
:1057400000981CBDD4040020FBF72EFEFEF7CAFB18
:10575000FDF768FCFDF7EEFDFDF712FDFDF77EFDA0
:10576000FDF7B2FDFDF7F6FBFDF71CFEFDF7FEFDB4
:10577000FDF78EFEFDF76FFE00211D48FCF7DEFDF4
:105780000C211B48FCF7DAFD3C211A48FCF71EFCF3
:105790003C211948FCF71AFC1648FCF7D5FA1648C4
:1057A000FCF7D2FA1248FCF7CFFA14480068C16837
:1057B00041F02001C160FDF759FF01221049114855
:1057C000FDF75AF80E490122491C0F48FDF754F81D
:1057D0004FF4FA70FBF772FC0B480068416941F026
:1057E00001014161FDF7DEFB00F03DFAFEE700003C
:1057F000FC030020440400208C040020D40400207A
:10580000280000205C05002018050020014600202B
:10581000842900D0C81C7047704700000C4A10B59E
:1058200010600C4801600C4801680A48FDF76AFFE7
:10583000FAF74FFF0446094801680548FDF762FF83
:10584000FAF747FF2146BDE81040FDF7C9BD00004B
:10585000E8060020080700200400002000000020C7
:1058600010B5074C4FF07C512068884202DBFAF7F4
:1058700032FD2060BDE810400146FFF7CFBF0000B9
:105880007000002010B5074C07492068884204DCEE
:105890004FF07C51FAF7CDFC2060BDE81040014686
:1058A000FFF7BCBF70000020000040402DE9F74F1B
:1058B0008EB00CA906A8CDE900010BAB02AA09A97C
:1058C00007A8FFF791FE18B1012011B0BDE8F08FD5
:1058D000BDF81800C0057DD50298FAF7DFFE6FF01D
:1058E0001D042146FAF72FFD81460398FAF7D6FEEC
:1058F0002146FAF728FD80460498FAF7CFFE2146A4
:10590000FAF721FD06460598FAF7C8FE2146FAF790
:105910001AFD824601214846FAF715FD0746314631
:10592000FAF7DFFC04464FF040414046FAF7D9FC55
:1059300005465146FAF7D5FC2146FAF77AFCFAF704
:10594000E1FEFFF749FB4FF0663B5A463D4BFAF745
:10595000ADFDFAF703FF0E99086001213046FAF712
:10596000F2FC31460090FAF7BCFC0446284641465A
:10597000FAF7B7FC2146FAF7AEFC4FF07E51FAF782
:1059800058FCFAF7BFFE04460D4638464146FAF782
:10599000A8FC074651460098FAF7A3FC3946FAF7E7
:1059A00048FCFAF7AFFE22462B46FFF75DFD5A464C
:1059B000244BFAF77BFDFAF7D1FE0F9908605146A8
:1059C0000846FAF78EFC074631460846FAF789FC86
:1059D000054600E034E041460846FAF782FC0446FA
:1059E00049460846FAF77DFC2146FAF722FC29468B
:1059F000FAF771FC3946FAF76EFCFAF783FE0446B3
:105A00000D4651464846FAF76CFC0746314640467B
:105A1000FAF767FC3946FAF70CFC0121FAF793FC18
:105A2000FAF770FE22462B46FFF71EFD5A46054B3D
:105A3000FAF73CFDFAF792FE10990860002044E75F
:105A4000022042E766A64C402DE9F843214E054668
:105A5000174696F8240089464FF0FF3890B3B07A85
:105A600080B330686B460222817A70680078FDF757
:105A700013FA38BBBDF8000044BAAC4202D2002091
:105A800038701FE070684188B4EB510F11D931684C
:105A900000786B46497C0122FDF7FEF990B99DF82C
:105AA0000000C00605D500F017F86FF00100BDE852
:105AB000F8833068EAB24B46C17A70680078FDF727
:105AC000EBF908B14046F2E7B4FBF5F0401E387040
:105AD0000020ECE774000020F8B5554D4FF0FF367C
